:020000040800F2
:10000000000002203D2800083D2000088D2800083F
:100010004B20000851200008572000080000000075
:100020000000000000000000000000006B2000083D
:100030005D200008000000008D2800080122000853
:100040008D2800088D2800088D2800088D280008BC
:100050008D2800088D2800088D280008FD20000844
:100060008D2800088D2800088D2800088D2800089C
:100070008D2800088D2800088D2800088D2800088C
:100080008D2800088D2800088D2800088D2800087C
:100090008D2800088D2800088D280008AD1E000856
:1000A0008D2800088D2800088D2800088D2800085C
:1000B0008D2800088D280008792000088D28000868
:1000C0008D2800088D2800088D2800088D2800083C
:1000D0008D2800088D280008252700085D270008C6
:1000E0008D2800088D2800088D2800088D2800081C
:1000F0008D2800088D2800088D2800088D2800080C
:100100008D2800088D2800088D2800088D280008FB
:1001100095270008CD2700088D2800088D280008A5
:100120008D2800088D2800088D2800088D280008DB
:100130008D2800088D2800088D2800088D280008CB
:100140008D2800088D2800088D2800088D280008BB
:100150008D2800088D2800088D2800080528000833
:100160008D2800088D2800088D2800088D2800089B
:100170008D2800088D2800088D2800088D2800088B
:080180008D2800088D280008FD
:1001880010B5054C237833B9044B13B10448AFF3C9
:1001980000800123237010BDB00000200000000083
:1001A800BC2B000808B5034B1BB103490348AFF348
:1001B800008008BD00000000B4000020BC2B00082F
:1001C80080B485B000AF78600023FB730023BB7355
:1001D8000F237B737B68DB78002B39D0274BDB68D8
:1001E800DB431B0ADBB203F00703FB73FB7BC3F1A2
:1001F8000403BB737A7BFB7B42FA03F37B737B6854
:100208005B781A46BB7B02FA03F3FB737B689A7828
:100218007B7B1340DAB2FB7B1343FB73FB7B1B0135
:10022800FB73174A7B681B781344FA7B83F8002317
:10023800134A7B681B785B09DBB218467B681B781E
:1002480003F01F03012101FA03F342F820300FE005
:100258000B497B681B785B09DBB218467B681B7807
:1002680003F01F0301229A4000F1200341F82320E4
:1002780000BF1437BD465DF8047B704700ED00E011
:1002880000E100E080B485B000AF78600023FB6037
:10029800344BFB607B689B79002B4FD03149314B45
:1002A8001A687B681B68DB4313400B602D492D4B94
:1002B8005A687B681B68DB4313404B607B681B797B
:1002C8001A46FB681344FB60FB68FA6811687A6891
:1002D80012680A431A602349224B9A687B681B6894
:1002E800DB4313408B601F491E4BDA687B681B6831
:1002F800DB431340CB607B685B79102B0ED1194927
:10030800184B9A687B681B6813438B601549154B1B
:10031800DA687B681B681343CB601DE0114BFB60F8
:100328007B685B791A46FB681344FB60FB68FA68D4
:1003380011687A6812680A431A600DE07B681B79B5
:100348001A46FB681344FB60FB68FA6811687A6810
:100358001268D2430A401A6000BF1437BD465DF8E0
:10036800047B7047003C014080B485B000AF7860E2
:100378000023FB730023BB600C4B1A687B68134097
:10038800BB600A4B5A697B681340002B05D0BB68D9
:10039800002B02D00123FB7301E00023FB73FB7BDE
:1003A80018461437BD465DF8047B7047003C014091
:1003B80080B483B000AF7860044A7B68536100BFA3
:1003C8000C37BD465DF8047B704700BF003C014018
:1003D80080B487B000AF7860396000237B61002368
:1003E8003B610023FB6000237B6176E001227B698F
:1003F80002FA03F33B613B681A683B691340FB60F0
:10040800FA683B699A4265D17B681A687B695B0028
:10041800032101FA03F3DB431A407B681A607B6807
:100428001A683B681B7919467B695B0001FA03F37C
:100438001A437B681A603B681B79012B03D03B6821
:100448001B79022B2ED17B689A687B695B0003219C
:1004580001FA03F3DB431A407B689A607B689A6869
:100468003B685B7919467B695B0001FA03F31A4321
:100478007B689A607B685A687B699BB2194601233E
:100488008B40DB431A407B685A607B685B683A683C
:10049800927911467A6992B201FA02F292B21A433B
:1004A8007B685A607B68DA687B699BB25B000321D2
:1004B80001FA03F3DB431A407B68DA607B68DA6889
:1004C8003B68DB7919467B695B0001FA03F31A4341
:1004D8007B68DA607B6901337B617B690F2B85D987
:1004E80000BF1C37BD465DF8047B704780B483B0FD
:1004F80000AF78600B467B8013467B707B78002BBF
:1005080003D07B687A881A8302E07B687A885A83EA
:1005180000BF0C37BD465DF8047B704780B485B0DA
:1005280000AF78600B467B8013467B700023FB602E
:100538000023BB607A787B8803F007039B0002FAEC
:1005480003F3FB607B88DB089BB218467B88DB08DB
:100558009BB21A467B68083253F822207B8803F046
:1005680007039B000F2101FA03F3DB4302EA0301AF
:100578007B6800F1080243F822107B88DB089BB2F5
:100588001A467B68083253F82220FB681343BB6085
:100598007B88DB089BB21A467B680832B96843F847
:1005A800221000BF1437BD465DF8047B7047000079
:1005B80080B489B000AF78600023BB6100237B6101
:1005C8000023FB6102233B610023FB600223BB6025
:1005D800474B9B6803F00C03BB61BB69042B07D036
:1005E800082B09D0002B3DD17B68424A1A603DE0B8
:1005F8007B68414A1A6039E03D4B5B689B0D03F00C
:100608000103FB603A4B5B6803F03F03BB60FB6888
:10061800002B0CD0384ABB68B2FBF3F3344A52685B
:100628009209C2F3080202FB03F3FB610BE0314AB3
:10063800BB68B2FBF3F32E4A52689209C2F3080270
:1006480002FB03F3FB612A4B5B681B0C03F00303FB
:1006580001335B003B61FA693B69B2FBF3F27B68EB
:100668001A6003E07B68234A1A6000BF204B9B682E
:1006780003F0F003BB61BB691B09BB611F4ABB697F
:1006880013441B78DBB27B617B681A687B69DA40AC
:100698007B685A60164B9B6803F4E053BB61BB69E7
:1006A8009B0ABB61154ABB6913441B78DBB27B61AB
:1006B8007B685A687B69DA407B689A600C4B9B6858
:1006C80003F46043BB61BB695B0BBB610B4ABB694D
:1006D80013441B78DBB27B617B685A687B69DA401C
:1006E8007B68DA6000BF2437BD465DF8047B70473D
:1006F800003802400024F40000127A0000000020B4
:1007080080B483B000AF78600B46FB70FB78002B99
:1007180006D00A49094B1A6B7B6813430B6306E042
:100728000649064B1A6B7B68DB4313400B6300BF1B
:100738000C37BD465DF8047B704700BF00380240A7
:1007480080B483B000AF78600B46FB70FB78002B59
:1007580006D00A49094B1A6C7B6813430B6406E000
:100768000649064B1A6C7B68DB4313400B6400BFD9
:100778000C37BD465DF8047B704700BF0038024067
:1007880080B483B000AF78600B46FB70FB78002B19
:1007980006D00A49094B5A6C7B6813434B6406E040
:1007A8000649064B5A6C7B68DB4313404B6400BF19
:1007B8000C37BD465DF8047B704700BF0038024027
:1007C80080B485B000AF786039600023FB817B6816
:1007D8001B88FB81FB8903F44153FB813B681A8822
:1007E8003B685B8813439AB23B689B8813439AB271
:1007F8003B68DB8813439AB23B681B8913439AB260
:100808003B685B8913439AB23B689B8913439AB24E
:100818003B68DB8913439AB2FB891343FB817B68EE
:10082800FA891A807B689B8B9BB223F400639AB287
:100838007B689A833B681A8A7B681A8200BF1437E0
:10084800BD465DF8047B704780B483B000AF786024
:100858000B46FB70FB78002B08D07B681B889BB28B
:1008680043F040039AB27B681A8007E07B681B88D4
:100878009BB223F040039AB27B681A8000BF0C3702
:10088800BD465DF8047B704780B483B000AF7860E4
:100898000B467B807B884FF6FF62934208D07B68CB
:1008A8001B889BB243F480739AB27B681A8007E076
:1008B8007B681B889BB223F480739AB27B681A808A
:1008C80000BF0C37BD465DF8047B704780B483B029
:1008D80000AF78607B689B899BB218460C37BD4691
:1008E8005DF8047B704780B483B000AF78600B4636
:1008F8007B807B687A889A8100BF0C37BD465DF89B
:10090800047B704780B485B000AF78600B467B806D
:100918000023FB737B681B899AB27B8813409BB2C8
:10092800002B02D00123FB7301E00023FB73FB7B48
:1009380018461437BD465DF8047B704790B484B000
:1009480000AF03460A46FB711346BB710023FB60E8
:10095800BB7903F003039B000F2202FA03F3FB6049
:100968001649BB799B08DBB21846144ABB799B0829
:10097800DBB2023352F82320FB68DB431A40831CA6
:1009880041F823200D48BB799B08DBB21C460B4A73
:10099800BB799B08DBB2023352F82320F979BB7983
:1009A80003F003039B0001FA03F31A43A31C40F866
:1009B800232000BF1037BD4690BC70470038014067
:1009C80080B483B000AF78607B685B6B18460C37E7
:1009D800BD465DF8047B704780B483B000AF786093
:1009E8007B689B6B18460C37BD465DF8047B7047E7
:1009F80080B483B000AF78600B467B807B88DB4394
:100A08009AB27B681A8200BF0C37BD465DF8047B3A
:100A18007047000080B58AB000AF78603960002365
:100A28007B6200233B620023FB610023BB617B6880
:100A38001B8A9BB27B627B6A23F440537B623B68D0
:100A4800DB881A467B6A13437B627B6A9AB27B68AF
:100A58001A827B689B899BB27B627B6A23F4B053C2
:100A680023F00C037B623B689A883B681B8913431D
:100A78009AB23B685B8913439BB21A467B6A13435D
:100A88007B627B6A9AB27B689A817B689B8A9BB2FD
:100A98007B627B6A23F440737B623B689B891A46BE
:100AA8007B6A13437B627B6A9AB27B689A8207F1FE
:100AB80008031846FFF77CFD7B68304A934203D051
:100AC8007B682F4A934202D17B693B6201E03B6914
:100AD8003B627B689B899BB21BB2002B0CDA3A6A9B
:100AE80013469B0013449A001A443B681B685B003A
:100AF800B2FBF3F3FB610BE03A6A13469B00134425
:100B08009A001A443B681B689B00B2FBF3F3FB6135
:100B1800FB691C4AA2FB03235B091B017B627B6AFE
:100B28001B09642202FB03F3FA69D31ABB617B68D1
:100B38009B899BB21BB2002B0CDABB69DB003233FA
:100B4800104AA2FB03235B0903F007037A6A1343E5
:100B58007B620BE0BB691B0132330A4AA2FB032309
:100B68005B0903F00F037A6A13437B627B6A9AB2CC
:100B78007B681A8100BF2837BD4680BD0010014040
:100B8800001401401F85EB5180B483B000AF78603A
:100B98000B46FB70FB78002B08D07B689B899BB2C7
:100BA80043F400539AB27B689A8107E07B689B897B
:100BB8009BB223F400539AB27B689A8100BF0C372A
:100BC800BD465DF8047B704780B483B000AF7860A1
:100BD8000B46FB70FB78002B0AD07B689B899BB285
:100BE8006FEA43436FEA53439AB27B689A8107E0FE
:100BF8007B689B899BB2C3F30E039AB27B689A8188
:100C080000BF0C37BD465DF8047B704780B483B0E5
:100C180000AF78600B467B807B88C3F308039AB2E9
:100C28007B689A8000BF0C37BD465DF8047B70472F
:100C380080B483B000AF78607B689B889BB2C3F3B5
:100C480008039BB218460C37BD465DF8047B704715
:100C580080B487B000AF78600B467B8013467B700A
:100C680000233B610023FB600023BB6000237B6102
:100C78007B687B617B88DBB25B09DBB23B617B888D
:100C880003F01F03FB600122FB6802FA03F3BB6059
:100C98003B69012B03D17B690C337B6109E03B691C
:100CA800022B03D17B6910337B6102E07B6914332B
:100CB8007B617B78002B06D07B697A691168BA68FA
:100CC8000A431A6006E07B697A691168BA68D243F8
:100CD8000A401A6000BF1C37BD465DF8047B7047A8
:100CE80080B485B000AF78600B467B800023FB732F
:100CF8007B681B889AB27B8813409BB2002B02D07A
:100D08000123FB7301E00023FB73FB7B18461437B8
:100D1800BD465DF8047B704780B487B000AF78604B
:100D28000B467B800023FB6000237B610023BB60B4
:100D38000023FB747B88DBB25B09DBB2BB607B887A
:100D480003F01F037B6101227B6902FA03F37B61D5
:100D5800BB68012B07D17B689B899BB21A467B69CC
:100D680013407B6111E0BB68022B07D17B681B8AAB
:100D78009BB21A467B6913407B6106E07B689B8ABD
:100D88009BB21A467B6913407B617B881B0A9BB226
:100D9800FB600122FB6802FA03F3FB607B681B8897
:100DA8009BB21A46FB681340FB607B69002B05D099
:100DB800FB68002B02D00123FB7401E00023FB74C5
:100DC800FB7C18461C37BD465DF8047B704780B530
:100DD80000AF7021072000F0C5FA034603F0700346
:100DE800DBB2184680BD80B582B000AF0346FB7108
:100DF800002000F097FA03465BB223F00C035AB2C6
:100E0800FB799B005BB213435BB2DBB2194600204F
:100E180000F0A8FA00BF0837BD4680BD80B582B093
:100E280000AF03460A46FB711346BB71FB79002BE2
:100E38004DDB052B02DDFF2B38D048E0022000F007
:100E480071FA03461946FB79012202FA03F3DBB271
:100E58000B43DBB21946022000F084FABB79002B61
:100E680010D0012000F05EFA03461946FB790122F2
:100E780002FA03F3DBB20B43DBB21946012000F0A0
:100E880071FA25E0012000F04DFA03465AB2FB79C9
:100E9800012101FA03F35BB2DB435BB213405BB29F
:100EA800DBB21946012000F05DFA11E03F21022073
:100EB80000F058FABB79002B04D03F21012000F044
:100EC80051FA05E00021012000F04CFA00E000BFD3
:100ED80000BF0837BD4680BD80B582B000AF03466D
:100EE800FB71FB79002B34DB052B02DDFF2B27D0B0
:100EF8002FE0022000F016FA03465AB2FB790121CE
:100F080001FA03F35BB2DB435BB213405BB2DBB2C3
:100F18001946022000F026FA012000F003FA0346E1
:100F28005AB2FB79012101FA03F35BB2DB435BB2EE
:100F380013405BB2DBB21946012000F013FA09E056
:100F48000021022000F00EFA0021012000F00AFA28
:100F580000E000BF00BF0837BD4680BD80B582B045
:100F680000AF03463960FB71FB79062B21D801A23B
:100F780052F823F0990F0008990F0008A70F0008EE
:100F8800A70F0008A70F0008A70F0008990F00086F
:100F9800FB7900223968184600F09EFA0AE0FB79CE
:100FA8000A33DAB23B681B781946104600F0DAF9C2
:100FB80000E000BF00BF0837BD4680BD80B582B0E5
:100FC80000AF03460A46FB711346BB80BB880A4A3A
:100FD800A2FB03231B099BB2013B1B015AB297F9E1
:100FE800073013435BB2DBB21946042000F0BAF9AC
:100FF80000BF0837BD4680BDD34D621080B582B0B2
:1010080000AF0346FB71FB79023BDBB219460320B4
:1010180000F0A8F900BF0837BD4680BD80B582B092
:1010280000AF03460A46FB711346BB71FB791133C7
:10103800DBB2BA791146184600F094F900BF0837B8
:10104800BD4680BD80B500AF032000F06BF90346B4
:101058000233DBB2184680BD80B582B000AF0346CC
:10106800FB71FB79012B0BD1002000F05BF90346E3
:1010780043F00103DBB21946002000F073F90AE0DF
:10108800002000F04FF9034623F00103DBB21946B4
:10109800002000F067F900BF0837BD4680BD80B565
:1010A80082B000AF0346FB71FB79012B0BD1002006
:1010B80000F038F9034643F00203DBB2194600207A
:1010C80000F050F90AE0002000F02CF9034623F064
:1010D8000203DBB21946002000F044F900BF0837CC
:1010E800BD4680BD80B582B000AF0346FB71FB7979
:1010F8001946052000F036F900BF0837BD4680BD07
:1011080080B582B000AF0346FB71062000F00AF9F3
:1011180003465BB223F006035AB2FB795B005BB26D
:1011280013435BB2DBB21946062000F01BF900BF7F
:101138000837BD4680BD80B584B000AF0346FB715B
:10114800FB79012B0BD1062000F0ECF8034623F0C5
:101158000803DBB21946062000F004F920E0FB7909
:10116800002B12D1062000F0DDF80346FB73FB7B51
:1011780023F02803FB73FB7B43F02003FB73FB7B0B
:101188001946062000F0EEF80AE0062000F0CAF83A
:10119800034643F00803DBB21946062000F0E2F8E4
:1011A80000BF1037BD4680BD80B500AF00F090F895
:1011B8000346072B01D1012300E00023184680BD18
:1011C80080B582B000AF78600B46FB70FB781A469A
:1011D8007968072000F080F900BF0837BD4680BD58
:1011E80080B582B000AF0346FB71FB7903F03F0383
:1011F800DBB219461C2000F0B5F800BF0837BD4621
:1012080080BD80B500AF1D2000F08CF8034643F088
:101218000403DBB219461D2000F0A4F800BF80BD0E
:1012280080B500AF1D2000F07DF8034643F00203AF
:10123800DBB219461D2000F095F800BF80BD000004
:1012480080B582B000AF03463960FB711346BB71AD
:10125800002204210F48FFF749F9FB7963F057038F
:10126800DBB2184600F0C0FE06E03B685A1C3A6044
:101278001B78184600F0B8FEBB795A1EBA71002BCD
:10128800F3D1012204210348FFF730F900BF0837E2
:10129800BD4680BD0010024080B582B000AF00227C
:1012A80004210A48FFF722F9602000F09DFE002083
:1012B80000F09AFE0346FB71012204210348FFF760
:1012C80015F9FB7918460837BD4680BD0010024065
:1012D80080B500AF00F01DF803465B10DBB203F0E9
:1012E8000703DBB2184680BD80B582B000AF7860D6
:1012F8007968082000F07EF8034618460837BD468E
:1013080080BD80B500AF0021E12000F02BF800BFC0
:1013180080BD80B500AF0021FF2000F023F8034610
:10132800184680BD80B584B000AF0346FB7100222B
:1013380004210B48FFF7DAF8FB79184600F054FE51
:10134800002000F051FE0346FB73012204210448EB
:10135800FFF7CCF8FB7B18461037BD4680BD00BFB1
:101368000010024080B584B000AF03460A46FB7106
:101378001346BB71002204211D48FFF7B7F8FB791B
:101388001F2B0DD8FB7943F02003DBB2184600F081
:101398002BFE0346FB73BB79184600F025FE1CE0C4
:1013A800FB79E12B13D0FB79E22B10D0FB79E32BEF
:1013B8000DD0FB79FF2B0AD0FB79184600F014FEFC
:1013C8000346FB73BB79184600F00EFE05E0FB7977
:1013D800184600F009FE0346FB7301220421044865
:1013E800FFF784F8FB7B18461037BD4680BD00BF69
:1013F8000010024090B585B000AF03463960FB711C
:10140800FB79082B41D801A252F823F039140008BF
:101418003914000893140008931400089314000862
:101428009314000839140008931400085D14000888
:10143800FFF708FE0346FB73FB7BBB730022042106
:101448002448FFF753F8FB790A33DBB2184600F05B
:10145800CBFD1FE0FFF73CFF0346FB71FB79062B32
:101468000ED8FFF719FF0346FB73FB7BBB73002203
:1014780004211848FFF73AF8612000F0B5FD09E0AB
:101488000023BB73BB7BFB7304E00023BB73BB7BF4
:10149800FB7300BF07E03C68631C3B60002000F062
:1014A800A3FD03462370FB7B5A1EFA73002BF2D16F
:1014B800012204210748FFF719F8FB791B021AB229
:1014C800BB7B1BB213431BB29BB218461437BD46F5
:1014D80090BD00BF0010024080B582B000AF034647
:1014E8003960FB711346BB71FB79072B2BD801A21E
:1014F80052F823F01D1500081D1500084F150008A7
:101508004F1500084F1500084F1500081D15000855
:101518003D150008FFF796FD0346BB710022042124
:101528001448FEF7E3FFFB792A33DBB2184600F0D4
:101538005BFD09E0002204210E48FEF7D7FFA0203A
:1015480000F052FD00E000BF06E03B685A1C3A601C
:101558001B78184600F048FDBB795A1EBA71002B5B
:10156800F3D1012204210348FEF7C0FF00BF08376A
:10157800BD4680BD0010024080B500AF00F058FAAB
:1015880000F02AFA0346052BF8D000F025FA0346A6
:10159800022B05D102220F49002000F0D1FF04E000
:1015A80002220D49002000F0CBFF642000F0A2FBCE
:1015B8000A4B00221A7001F03DFA034603F00103BA
:1015C800002B02D0054B01221A702021034800F09D
:1015D800D3F9D3E7D42B0008E42B0008CC00002073
:1015E80080B500AF012208212048FEF77FFF822046
:1015F80000F0D4FD00F01CFA00F0EEF90346002BD1
:1016080004D100F0DBFD0346002BF3D100F0E4F930
:101618000346032B1BD1002000F0EAF90346012BF7
:101628000AD1012210211148FEF760FF0222104959
:10163800002000F085FF14E0002210210B48FEF77F
:1016480055FF02220B49002000F07AFF09E0002232
:1016580010210648FEF74AFF02220649002000F042
:101668006FFF002000F0D4F9C1E700BF001002406E
:10167800F42B0008002C000880B582B000AF786019
:101688000B46FB70FF20FFF727FC01210020FFF726
:10169800C5FB0320FFF7A7FB4FF4FA710F20FFF7F4
:1016A8008DFC0520FFF7AAFC79680620FFF756FC99
:1016B80079680020FFF752FCFB78002B03D100204B
:1016C800FFF7CAFC06E00120FFF7C6FC2021002036
:1016D800FFF7A4FC4620FFF705FD0120FFF7DFFC1C
:1016E800872000F0EDFA002000F092F900BF0837DB
:1016F800BD4680BD80B500AF0C4800F027FB0B4805
:1017080000F024FB0421094800F006FB08210748E3
:1017180000F002FB012204210448FEF7E7FE002244
:1017280008210248FEF7E2FE00BF80BD001002401B
:1017380080B500AF00F07CF900F04EF90346052BA8
:10174800F8D000F049F90346022B04D000F044F920
:101758000346042B05D102221F49002000F0F0FEA9
:1017680004E002221D49002000F0EAFE00F034F9EE
:101778000346042B1AD1002000F03AF90346012B46
:101788000AD1012210211648FEF7B0FE022215499F
:10179800002000F0D5FE09E0002210211048FEF7D5
:1017A800A5FE02221049002000F0CAFE642000F0C5
:1017B800A1FA0E4B00221A7001F03CF9034603F01F
:1017C8000103002B02D0094B01221A70202107487F
:1017D80000F0D2F8AEE700BF0C2C00081C2C000863
:1017E800001002402C2C0008382C0008EC000020C7
:1017F80080B500AF012208213648FEF777FE364B48
:1018080000221A7001F016F9034603F00103002BB9
:1018180002D0314B01221A7020222F490020FFF7F5
:101828000FFD822000F0BAFC00F002F900F0D4F8B5
:101838000346002B04D100F0C1FC0346002BF3D172
:1018480000F0CAF80346022B04D000F0C5F803469E
:10185800042B05D102222149002000F071FE04E08A
:1018680002221F49002000F06BFE00F0B5F8034685
:10187800032B04D000F0B0F80346042B1BD1002042
:1018880000F0B6F80346012B0AD1022215490020C0
:1018980000F056FE012210210E48FEF727FE14E044
:1018A80002221149002000F04BFE002210210948B5
:1018B800FEF71CFE09E002220B49002000F040FE62
:1018C800002210210348FEF711FE002000F0A0F8C6
:1018D80095E700BF00100240EC0000200C2C000827
:1018E8001C2C00082C2C0008382C000880B582B06D
:1018F80000AF78600B46FB70FF20FFF7EDFA01217F
:101908000020FFF78BFA0320FFF76DFA4FF4FA7106
:101918000F20FFF753FB0520FFF770FB79680620BF
:10192800FFF71CFB79680020FFF718FBFFF778FC2E
:10193800FFF767FC3F20FFF753FCFB78002B03D130
:101948000020FFF789FB06E00120FFF785FB202137
:101958000020FFF763FB4620FFF7C4FB0120FFF7D9
:101968009EFB872000F0ACF9002000F051F800BF82
:101978000837BD4680BD000080B584B000AF7860F0
:101988000B46FB70FB7819467868FFF719FC0023B3
:10199800FB730A23BB73012208210E48FEF7A6FD3C
:1019A80007E0FB7B0133FB73FB7B052BF9D9002395
:1019B800FB73BB7B5A1EBA73002BF5D1002208219A
:1019C8000448FEF793FD052000F022F800BF103709
:1019D800BD4680BD0010024080B400AF034B1B78A9
:1019E8001846BD465DF8047B704700BF2C010020F7
:1019F80080B483B000AF0346FB71FB79034AD35C24
:101A080018460C37BD465DF8047B70470C01002072
:101A180080B483B000AF0346FB71044AFB791370AE
:101A280000BF0C37BD465DF8047B70472C010020D1
:101A380080B500AF00F01EFA0346002B38D0FFF740
:101A4800C6F90346202B0FD0202B02DC102B05D023
:101A58002CE0402B0FD0602B1CD027E0FFF751FC67
:101A68000120FFF7D5FF21E00220FFF7D1FF1DE09D
:101A78001048FFF739FCFFF797FB034683F0010393
:101A8800DBB2002BF4D10320FFF7C2FF0EE00948B8
:101A9800FFF72AFCFFF788FB034683F00103DBB25C
:101AA800002BF4D10420FFF7B3FF00BF00F0EEF9DC
:101AB80000BF80BD0C01002080B500AFFFF7B8FF64
:101AC800FFF78AFF0346052BF8D0642000F012F9CF
:101AD800084B00221A7000F0ADFF034603F0010323
:101AE800002B02D0034B01221A7020210148FFF776
:101AF80043FFE3E73001002080B500AF0122082151
:101B08001848FEF7F3FC822000F048FBFFF790FF2F
:101B1800FFF762FF0346002B04D100F04FFB03469A
:101B2800002BF3D1FFF758FF0346032B11D10020F8
:101B3800FFF75EFF0346012B05D10122102109485A
:101B4800FEF7D4FC0AE0002210210648FEF7CEFC7E
:101B580004E0002210210348FEF7C8FC0020FFF72C
:101B680057FFD0E70010024080B582B000AF786020
:101B78000B46FB70FF20FFF7AFF900210020FFF7AD
:101B88004DF90320FFF72FF94FF4FA710020FFF702
:101B980015FA0520FFF732FA79680620FFF7DEF913
:101BA80079680020FFF7DAF9FB78002B03D10020D1
:101BB800FFF752FA06E00120FFF74EFA2021002035
:101BC800FFF72CFA4620FFF78DFA0120FFF767FA96
:101BD8000320FFF795FA0020FFF7ADFA872000F001
:101BE8006FF80020FFF714FF00BF0837BD4680BD1F
:101BF80080B582B000AF0523FB7100F045FE00F010
:101C080017FBFFF777FD08212A4800F071F900F06B
:101C1800F1F800F05BF900F0F5FA022226490020FD
:101C280000F08EFCFB79082B3ED801A252F823F075
:101C3800B71C0008B71C0008B71C00085D1C00088A
:101C48006B1C0008791C0008871C0008951C0008FC
:101C5800A31C000801211948FFF786FFFFF74CFF76
:101C680026E001211548FFF707FDFFF7B9FC1FE043
:101C780001211248FFF73AFEFFF7BAFD18E00021EC
:101C88000E48FFF771FFFFF717FF11E000210B481F
:101C9800FFF7F2FCFFF770FC0AE000210748FFF7A6
:101CA80025FEFFF745FD03E00023FB7100E000BFC0
:101CB800B8E700BF003C0040442C0008582C00083E
:101CC80080B485B000AF78600023FB6007E0FB6854
:101CD8000133FB60FB68052BF9D90023FB607B68A7
:101CE8005A1E7A60002BF5D100BF1437BD465DF847
:101CF800047B704780B582B000AF786003E04FF492
:101D08007A70FFF7DDFF7B685A1E7A60002BF6D1E8
:101D180000BF0837BD4680BD80B584B000AF78608D
:101D28000B467B807B88BB6001233B730023BB731E
:101D38000123FB7302237B7307F1080319467868B4
:101D4800FEF746FB00BF1037BD4680BD80B582B0A8
:101D580000AF78607B68204A934204D101210120BA
:101D6800FEF7CEFC34E07B681C4A934204D1012183
:101D78000220FEF7C5FC2BE07B68194A934204D188
:101D880001210420FEF7BCFC22E07B68154A93423F
:101D980004D101210820FEF7B3FC19E07B68124A40
:101DA800934204D101211020FEF7AAFC10E07B68C1
:101DB8000E4A934204D101212020FEF7A1FC07E03E
:101DC8007B680B4A934203D101214020FEF798FC1F
:101DD80000BF0837BD4680BD000002400004024035
:101DE80000080240000C02400010024000140240AB
:101DF8000018024080B586B000AF01210220FEF72E
:101E08007FFC01214FF48040FEF7BAFC00233B75AC
:101E18000123FB7503237B754FF400733B6107F1C6
:101E2800100319461248FEF7D3FA09210120FEF7DC
:101E380085FD4FF400737B6000233B720C237B729B
:101E48000123BB723B1D1846FEF71CFA17233B7390
:101E580001237B730123BB730123FB7307F10C037D
:101E68001846FEF7ADF900BF1837BD4680BD00BF64
:101E78000004024080B400AF034B1B78DBB2184665
:101E8800BD465DF8047B70475001002080B400AF68
:101E9800034B00221A7000BFBD465DF8047B7047F3
:101EA8005001002080B500AF4FF40070FEF75CFAD7
:101EB8000346002B06D0044B01221A704FF4007021
:101EC800FEF776FA00BF80BD5001002080B500AF54
:101ED8000648FFF73BFF10210448FFF71DFF0022CB
:101EE80010210248FEF702FB00BF80BD001002402F
:101EF80080B58AB000AF78600B46FB7001214FF4C3
:101F08000040FEF71DFC01210220FEF7F9FB01212C
:101F18000420FEF7F5FB06220C213148FEF7FEFAF5
:101F2800062204212F48FEF7F9FA062203212D483C
:101F3800FEF7F4FA022387F82430022387F82530C5
:101F4800002387F82630022387F8273008233B62CE
:101F580007F1200319462348FEF73AFA10233B629B
:101F680007F1200319461F48FEF732FA4FF4805351
:101F78003B6207F1200319461948FEF729FA0021A8
:101F88007868FEF761FC0023BB814FF48273FB8104
:101F9800FB78102B02D14FF4006300E000233B8252
:101FA80000237B820023BB824FF40073FB8218233B
:101FB8003B8300237B830723BB8307F10C0319466C
:101FC8007868FEF7FDFB01217868FEF73DFC4FF4C9
:101FD80080717868FEF758FC00BF2837BD4680BD81
:101FE800000802400004024080B582B000AF0346FA
:101FF800FB7100BF02210E48FEF784FC0346002B4C
:10200800F8D0FB799BB219460948FEF76CFC00BF73
:1020180001210748FEF776FC0346002BF8D0044858
:10202800FEF754FC0346DBB218460837BD4680BDB0
:10203800003C004080B400AF00BFBD465DF8047BA3
:10204800704780B400AFFEE780B400AFFEE780B40D
:1020580000AFFEE780B400AF00BFBD465DF8047B6B
:10206800704780B400AF00BFBD465DF8047B704781
:1020780080B584B000AF3B461846FEF799FA0421B4
:102088001848FEF7B5FC1748FEF7A6FC03469AB2B7
:10209800154B1A80144B1B889BB2002B18D0114883
:1020A800FEF78EFC0246642303FB02F30E4A1288F5
:1020B80092B2B3FBF2F39AB20C4B1A807B685B08BE
:1020C800094A128892B2B3FBF2F3094A136005E099
:1020D800064B00221A80064B00221A6000BF1037F8
:1020E800BD4680BD00080040520100205401002078
:1020F8005801002080B500AF0220FEF759F900BF53
:1021080080BD000080B483B000AF03463960FB7126
:1021180097F90730002B0BDA0D49FB7903F00F0311
:10212800043B3A68D2B21201D2B20B441A7609E0E3
:10213800084997F907303A68D2B21201D2B20B4473
:1021480083F8002300BF0C37BD465DF8047B704759
:1021580000ED00E000E100E080B582B000AF7860FB
:102168007B68B3F1807F01D3012311E00A4A7B68C1
:1021780023F07F43013B53600F214FF0FF30FFF7FF
:10218800C1FF054B00229A60034B07221A60002307
:1021980018460837BD4680BD10E000E080B483B023
:1021A80000AF7860044A7B68136000BF0C37BD46F7
:1021B8005DF8047B704700BF5C01002080B400AF6D
:1021C800034B1B68DBB21846BD465DF8047B7047BD
:1021D8005C01002080B400AF064B1B68002B04D0C4
:1021E800044B1B68013B034A136000BFBD465DF802
:1021F800047B70475C01002080B500AFFFF7EAFF61
:1022080000BF80BD80B500AF074B1B68074AA2FB23
:1022180003239B091846FFF79FFF0346002B00D0B6
:10222800FEE700BF80BD00BF48000020D34D62100C
:1022380090B589B000AF0023FB7742E1FA7FA5494A
:102248001346DB009B1ADB000B4420331B6801217B
:102258001846FEF755FAFA7F9E491346DB009B1A8B
:10226800DB000B4430331B6801211846FEF748FA9F
:10227800FA7F98491346DB009B1ADB000B440C33AA
:102288001B68954A93420BD0FA7F92491346DB00AC
:102298009B1ADB000B440C331B68904A93420DD108
:1022A800FA7F8C491346DB009B1ADB000B4404338E
:1022B8001B6801211846FEF763FA0CE0FA7F85498E
:1022C8001346DB009B1ADB000B4404331B68012117
:1022D8001846FEF735FAFA7F7E491346DB009B1A4B
:1022E800DB000B4418331868FA7F7A491346DB0081
:1022F8009B1ADB000B4424331B789CB2FA7F754988
:102308001346DB009B1ADB000B4408331B781A4684
:102318002146FEF703F9FA7F6E491346DB009B1A44
:10232800DB000B4428331868FA7F6A491346DB0040
:102338009B1ADB000B4434331B789CB2FA7F654947
:102348001346DB009B1ADB000B4408331B781A4644
:102358002146FEF7E3F802233B7603237B7600232E
:10236800BB760123FB76FA7F5A491346DB009B1A9A
:10237800DB000B441C331B887B61FA7F55491346ED
:10238800DB009B1ADB000B4418331B6807F11402AF
:1023980011461846FEF71CF8FA7F4E491346DB0033
:1023A8009B1ADB000B442C331B887B61FA7F49495D
:1023B8001346DB009B1ADB000B4428331B6807F12C
:1023C800140211461846FEF703F8FA7F41491346EE
:1023D800DB009B1ADB000B440C331B6801211846F9
:1023E800FEF7F2FBFA7F3B491346DB009B1ADB0042
:1023F8000B4410331B687B6000233B8100237B81E7
:102408000023BB8100233B820C23FB81FA7F3149E7
:102418001346DB009B1ADB000B440C331B683A1D88
:1024280011461846FEF7F6FAFA7F2A491346DB00EA
:102438009B1ADB000B440C331B6801211846FEF77E
:10244800A3FBFA7F23491346DB009B1ADB000B44EE
:102458000C331B68012240F225511846FEF7F8FBA1
:10246800FA7F1C491346DB009B1ADB000B4414332C
:102478001B783B7000237B700023BB700123FB702B
:102488003B461846FDF79CFEFB7F154A342101FBAD
:1024980003F313440D221A70FB7F114A342101FB08
:1024A80003F31344323300221A70FB7F0C4A3421A1
:1024B80001FB03F31344333300221A70FB7F01330B
:1024C800FB77FB7F002B3FF4B9AE00BF2437BD4636
:1024D80090BD00BF10000020001001400014014012
:1024E8006C01002080B582B000AF03460A46FB713C
:1024F8001346BB8000BFFA7910491346DB009B1ACC
:10250800DB000B440C331B6880211846FEF7E8FB00
:102518000346002BEFD0FA7908491346DB009B1AD3
:10252800DB000B440C331B68BA8811461846FEF7CB
:102538006DFB00BF0837BD4680BD00BF10000020FE
:1025480080B582B000AF03463960FB711346BB719A
:102558000AE03B681B789AB2FB7911461846FFF7E8
:10256800C1FF3B6801333B603B681B78002BF0D10F
:10257800BB79012B0AD1FB790A211846FFF7B2FF74
:10258800FB790D211846FFF7ADFF1EE0BB79022B42
:102598000AD1FB790D211846FFF7A4FFFB790A2120
:1025A8001846FFF79FFF10E0BB79032B05D1FB7995
:1025B8000A211846FFF796FF07E0BB79042B04D1E0
:1025C800FB790D211846FFF78DFF00BF0837BD4680
:1025D80080BD000090B482B000AF03460A46FB718C
:1025E8001346BB80FB79374A342101FB03F31344BC
:1025F80032331B78312B56D8FB79324A342101FB10
:1026080003F3134433331B78002B55D1BB881F2B9E
:1026180028D9BB887E2B25D8FB79FA79294934201B
:1026280000FB02F20A44323212781446BA88D0B259
:10263800244A342101FB03F31344234402461A704D
:10264800FB792049342202FB03F20A443232127821
:102658000132D0B21B4A342101FB03F31344323355
:1026680002461A70BB880D2B26D1FB79FA791549D9
:10267800342000FB02F20A44323212781446BA8837
:10268800D0B2104A342101FB03F313442344024619
:102698001A70FB790B4A342101FB03F313443333DB
:1026A80001221A7008E0FB79064A342101FB03F382
:1026B8001344333302221A7000BF0837BD4690BC5A
:1026C800704700BF6C01002080B584B000AF03469E
:1026D8000A46FB711346BB800023FB7315E0FA7BA7
:1026E8000D491346DB009B1ADB000B4414331B789F
:1026F800FA799A4206D1BA88FB7B11461846FFF749
:1027080069FF05E0FB7B0133FB73FB7B002BE6D005
:1027180000BF1037BD4680BD1000002080B582B0D4
:1027280000AF40F225510A48FEF7F6FA0346012B9E
:1027380009D10748FEF77CFA0346FB80FB88194657
:102748002620FFF7C1FF00BF0837BD4680BD00BF88
:102758000044004080B582B000AF40F225510A48DD
:10276800FEF7DAFA0346012B09D10748FEF760FAAB
:102778000346FB80FB8819462720FFF7A5FF00BF0B
:102788000837BD4680BD00BF0048004080B582B014
:1027980000AF40F225510A48FEF7BEFA0346012B66
:1027A80009D10748FEF744FA0346FB80FB8819461F
:1027B8003420FFF789FF00BF0837BD4680BD00BF42
:1027C800004C004080B582B000AF40F225510A4865
:1027D800FEF7A2FA0346012B09D10748FEF728FAAB
:1027E8000346FB80FB8819463520FFF76DFF00BFC5
:1027F8000837BD4680BD00BF0050004080B582B09C
:1028080000AF40F225510A48FEF786FA0346012B2D
:1028180009D10748FEF70CFA0346FB80FB881946E6
:102828004720FFF751FF00BF0837BD4680BD00BFF6
:1028380000140140DFF834D0002103E00C4B5B5852
:10284800435004310B480C4B42189A42F6D30B4ABA
:1028580002E0002342F8043B094B9A42F9D300F006
:1028680013F800F0C3F8FFF7C3F97047000002201F
:10287800682C000800000020B0000020B0000020F4
:10288800A4010020FEE7000080B500AF164A164BF1
:10289800D3F8883043F47003C2F88830134A134BD6
:1028A8001B6843F001031360104B00229A600F4A23
:1028B8000E4B1B6823F0847323F4803313600B4B97
:1028C8000B4A5A60094A094B1B6823F4802313609A
:1028D800064B0022DA6000F00DF8034B4FF000625F
:1028E8009A6000BF80BD00BF00ED00E000380240E4
:1028F8001030002480B483B000AF00237B60002335
:102908003B60364A354B1B6843F480331360334BC6
:102918001B6803F400333B607B6801337B603B68D2
:10292800002B03D17B68B3F5A06FF0D12B4B1B684C
:1029380003F40033002B02D001233B6001E00023A5
:102948003B603B68012B42D1244A244B1B6C43F06B
:1029580080531364224A224B1B6843F4404313609C
:102968001E4A1E4B9B6893601C4A1C4B9B6843F491
:1029780000439360194A194B9B6843F4A053936032
:10298800164B184A5A60154A144B1B6843F080735B
:10299800136000BF114B1B6803F00073002BF9D0C4
:1029A800114B40F205721A600C4A0C4B9B6823F0DD
:1029B80003039360094A094B9B6843F00203936041
:1029C80000BF064B9B6803F00C03082BF9D100BF2E
:1029D8000C37BD465DF8047B704700BF00380240E5
:1029E8000070004008544007003C024070B50D4E8E
:1029F8000D4CA41BA4100025A54209D10B4E0C4C6C
:102A080000F0D8F8A41BA4100025A54205D170BD7C
:102A180056F8253098470135EEE756F8253098479F
:102A28000135F2E7602C0008602C0008602C0008D3
:102A3800642C0008194B10B51C68A36BD3B9182077
:102A480000F032F843F20E33A06303804AF6CD3328
:102A5800438041F2342383804EF26D63C3804DF688
:102A6800EC630381052343810B2383810122002327
:102A7800C0E90423A16B0A480A694B69094C504311
:102A880004FB0300A2FB04230132034443F10003C7
:102A9800C1E9042323F0004010BD00BF4C00002012
:102AA8002DF451582D7F954C024B0146186800F0C3
:102AB80003B800BF4C00002070B5CD1C25F00305FD
:102AC80008350C2D38BF0C25002D064601DBA94220
:102AD80003D90C233360002070BD00F05BF8234A53
:102AE8001468214691B9224C23681BB9304600F07E
:102AF80041F820602946304600F03CF8431C26D1B6
:102B08000C233360304600F046F8E4E70B685B1BA3
:102B18001AD40B2B0FD90B60CD50CC18304600F0CF
:102B28003AF804F10B00231D20F00700C31A1BD04C
:102B38005A42E25070BD8C420DBF63684B686360B7
:102B4800136018BF0C46E9E70C464968CAE7C41C7D
:102B580024F00304A04205D0211A304600F00AF8F8
:102B68000130CDD02560D9E770BD00BF60010020DD
:102B78006401002038B5064C00230546084623604A
:102B880000F00AF8431C02D1236803B12B6038BD5A
:102B9800A001002070477047044B1968024609B924
:102BA80003491960186802441A60704768010020D8
:102BB800A4010020F8B500BFF8BC08BC9E467047C9
:0C2BC800F8B500BFF8BC08BC9E46704782
:102BD4004C4544325F424C494E4B28293B0000008F
:102BE4004C4544335F424C494E4B28293B0000007E
:102BF4004C4544315F4F4E28293B00004C4544313D
:102C04005F4F464628293B004C4544325F424C49BD
:102C14004E4B28293B0000004C4544335F424C494D
:102C24004E4B28293B0000004C4544315F4F4E2851
:102C3400293B00004C4544315F4F464628293B0060
:102C440053544D33322026204E524632344C3031C8
:0C2C54002B00000022334455010000005A
:042C6000AD010008BA
:042C640089010008DA
:102C6800000000000102030401020304060708092A
:102C780000000000100000000700000000100140E4
:102C880000C2010025000000000002400002000010
:102C980001000000090000000000024000040000DC
:102CA800010000000A000000007A030A500000201A
:102CB800000000000000000000000000000000000C
:102CC80000000000000000000000000000000000FC
:102CD80000000000000000000000000000000000EC
:102CE80000000000000000000000000000000000DC
:102CF80000000000000000000000000000000000CC
:102D080000000000000000000000000000000000BB
:040000050800283D8A
:00000001FF
